{
  "contractName": "Calculator",
  "abi": [
    {
      "inputs": [
        {
          "internalType": "uint256",
          "name": "a",
          "type": "uint256"
        },
        {
          "internalType": "uint256",
          "name": "b",
          "type": "uint256"
        }
      ],
      "name": "add",
      "outputs": [
        {
          "internalType": "uint256",
          "name": "",
          "type": "uint256"
        }
      ],
      "stateMutability": "pure",
      "type": "function",
      "constant": true
    },
    {
      "inputs": [
        {
          "internalType": "uint256",
          "name": "a",
          "type": "uint256"
        },
        {
          "internalType": "uint256",
          "name": "b",
          "type": "uint256"
        }
      ],
      "name": "subtract",
      "outputs": [
        {
          "internalType": "uint256",
          "name": "",
          "type": "uint256"
        }
      ],
      "stateMutability": "pure",
      "type": "function",
      "constant": true
    },
    {
      "inputs": [
        {
          "internalType": "uint256",
          "name": "a",
          "type": "uint256"
        },
        {
          "internalType": "uint256",
          "name": "b",
          "type": "uint256"
        }
      ],
      "name": "multiply",
      "outputs": [
        {
          "internalType": "uint256",
          "name": "",
          "type": "uint256"
        }
      ],
      "stateMutability": "pure",
      "type": "function",
      "constant": true
    },
    {
      "inputs": [
        {
          "internalType": "uint256",
          "name": "a",
          "type": "uint256"
        },
        {
          "internalType": "uint256",
          "name": "b",
          "type": "uint256"
        }
      ],
      "name": "divide",
      "outputs": [
        {
          "internalType": "uint256",
          "name": "",
          "type": "uint256"
        }
      ],
      "stateMutability": "pure",
      "type": "function",
      "constant": true
    }
  ],
  "bytecode": "0x608060405234801561001057600080fd5b5061052a806100206000396000f3fe608060405234801561001057600080fd5b506004361061004c5760003560e01c8063165c4a16146100515780633ef5e44514610081578063771602f7146100b1578063f88e9fbf146100e1575b600080fd5b61006b60048036038101906100669190610203565b610111565b6040516100789190610334565b60405180910390f35b61009b60048036038101906100969190610203565b610127565b6040516100a89190610334565b60405180910390f35b6100cb60048036038101906100c69190610203565b610180565b6040516100d89190610334565b60405180910390f35b6100fb60048036038101906100f69190610203565b610196565b6040516101089190610334565b60405180910390f35b6000818361011f91906103e7565b905092915050565b60008183101561016c576040517f08c379a0000000000000000000000000000000000000000000000000000000008152600401610163906102f4565b60405180910390fd5b81836101789190610441565b905092915050565b6000818361018e9190610360565b905092915050565b60008082116101da576040517f08c379a00000000000000000000000000000000000000000000000000000000081526004016101d190610314565b60405180910390fd5b81836101e691906103b6565b905092915050565b6000813590506101fd816104dd565b92915050565b6000806040838503121561021657600080fd5b6000610224858286016101ee565b9250506020610235858286016101ee565b9150509250929050565b600061024c60258361034f565b91507f5375627472616374696f6e20726573756c742063616e6e6f74206265206e656760008301527f61746976650000000000000000000000000000000000000000000000000000006020830152604082019050919050565b60006102b2601f8361034f565b91507f4469766973696f6e206279207a65726f206973206e6f7420616c6c6f776564006000830152602082019050919050565b6102ee81610475565b82525050565b6000602082019050818103600083015261030d8161023f565b9050919050565b6000602082019050818103600083015261032d816102a5565b9050919050565b600060208201905061034960008301846102e5565b92915050565b600082825260208201905092915050565b600061036b82610475565b915061037683610475565b9250827fffffffffffffffffffffffffffffffffffffffffffffffffffffffffffffffff038211156103ab576103aa61047f565b5b828201905092915050565b60006103c182610475565b91506103cc83610475565b9250826103dc576103db6104ae565b5b828204905092915050565b60006103f282610475565b91506103fd83610475565b9250817fffffffffffffffffffffffffffffffffffffffffffffffffffffffffffffffff04831182151516156104365761043561047f565b5b828202905092915050565b600061044c82610475565b915061045783610475565b92508282101561046a5761046961047f565b5b828203905092915050565b6000819050919050565b7f4e487b7100000000000000000000000000000000000000000000000000000000600052601160045260246000fd5b7f4e487b7100000000000000000000000000000000000000000000000000000000600052601260045260246000fd5b6104e681610475565b81146104f157600080fd5b5056fea26469706673582212201ed73251e3fde9707891bf7513b4cda836119a6fb5cb25b57ba48510fb937aab64736f6c63430008000033",
  "immutableReferences": {},
  "source": "// SPDX-License-Identifier: MIT\r\npragma solidity ^0.8.0;\r\n\r\ncontract Calculator {\r\n    // Function to add two numbers\r\n    function add(uint256 a, uint256 b) public pure returns (uint256) {\r\n        return a + b;\r\n    }\r\n\r\n    // Function to subtract two numbers\r\n    function subtract(uint256 a, uint256 b) public pure returns (uint256) {\r\n        require(a >= b, \"Subtraction result cannot be negative\");\r\n        return a - b;\r\n    }\r\n\r\n    // Function to multiply two numbers\r\n    function multiply(uint256 a, uint256 b) public pure returns (uint256) {\r\n        return a * b;\r\n    }\r\n\r\n    // Function to divide two numbers\r\n    function divide(uint256 a, uint256 b) public pure returns (uint256) {\r\n        require(b > 0, \"Division by zero is not allowed\");\r\n        return a / b;\r\n    }\r\n}",
  "sourcePath": "C:\\Users\\Christian\\Downloads\\CalculatorDapp\\contracts\\Calculator.sol",
  "compiler": {
    "name": "solc",
    "version": "0.8.0+commit.c7dfd78e.Emscripten.clang"
  },
  "schemaVersion": "3.4.16",
  "updatedAt": "2025-03-10T08:57:41.256Z",
  "networkType": "ethereum",
  "devdoc": {
    "kind": "dev",
    "methods": {},
    "version": 1
  },
  "userdoc": {
    "kind": "user",
    "methods": {},
    "version": 1
  }
}